:020000040000FA
:100000000C945D000C9485000C9485000C94850084
:100010000C9485000C9485000C9485000C9485004C
:100020000C9485000C9485000C9485000C9485003C
:100030000C9485000C9485000C9485000C9485002C
:100040000C94C1060C9485000C948F060C946906E0
:100050000C9485000C9485000C9485000C9485000C
:100060000C940B070C9485000000000800020100AE
:100070000003040700000000000000000000000072
:10008000250028002B0000000000240027002A0083
:10009000040404040404040402020202020203032E
:1000A0000303030301020408102040800102040836
:1000B00010200102040810202A0811241FBECFEFCF
:1000C000D8E0DEBFCDBF11E0A0E0B1E0E2E2FBE1AD
:1000D00002C005900D92A433B107D9F722E0A4E342
:1000E000B1E001C01D92A23DB207E1F710E0CDE5FD
:1000F000D0E004C02197FE010E948C09CC35D107C5
:10010000C9F70E946E080C948F0D0C94000090E0CB
:10011000FC01EC55FF4F249180579F4FFC018491C7
:10012000882399F090E0880F991FFC01EA57FF4F50
:10013000A591B491FC01E458FF4F859194918FB73C
:10014000F894EC91E22BEC938FBF089508950895F5
:10015000AF92BF92CF92DF92EF92FF920F931F93D5
:10016000CF93DF936C017B018B01040F151FEB0113
:100170005E01AE18BF08C017D10759F06991D601CA
:10018000ED91FC910190F081E02DC6010995892B3C
:1001900079F7C501DF91CF911F910F91FF90EF90FB
:1001A000DF90CF90BF90AF900895FC01538D448DA8
:1001B000252F30E0842F90E0821B930B541710F012
:1001C000CF96089501970895FC01918D828D98171F
:1001D00061F0A28DAE0FBF2FB11D5D968C91928DF7
:1001E0009F5F9F73928F90E008958FEF9FEF089528
:1001F000FC01918D828D981731F0828DE80FF11DF1
:10020000858D90E008958FEF9FEF0895FC01918D0B
:10021000228D892F90E0805C9F4F821B91098F7304
:10022000992708958BE192E00E94060121E0892B35
:1002300009F420E0822F089580E090E0892B29F0D6
:100240000E94120181110C9400000895FC01A48DFC
:10025000A80FB92FB11DA35ABF4F2C91848D90E0E8
:1002600001968F739927848FA689B7892C93A089CB
:10027000B1898C91837080648C93938D848D981355
:1002800006C00288F389E02D80818F7D80830895E8
:10029000EF92FF920F931F93CF93DF93EC0181E0D6
:1002A000888F9B8D8C8D98131AC0E889F98980817D
:1002B00085FF15C09FB7F894EE89FF896083E889B0
:1002C000F98980818370806480839FBF81E090E0A2
:1002D000DF91CF911F910F91FF90EF900895F62E2F
:1002E0000B8D10E00F5F1F4F0F731127E02E8C8DC9
:1002F0008E110CC00FB607FCFACFE889F98980810E
:1003000085FFF5CFCE010E942601F1CFEB8DEC0FDA
:10031000FD2FF11DE35AFF4FF0829FB7F8940B8F2A
:10032000EA89FB8980818062CFCFCF93DF93EC0194
:10033000888D8823B9F0AA89BB89E889F9898C91CD
:1003400085FD03C0808186FD0DC00FB607FCF7CF89
:100350008C9185FFF2CF808185FFEDCFCE010E9489
:100360002601E9CFDF91CF91089590E0FC01E85993
:10037000FF4F2491FC01EC55FF4F3491FC01E057F5
:10038000FF4FE491EE23C9F0222339F0233001F12D
:10039000A8F4213019F1223029F1F0E0EE0FFF1F0F
:1003A000E458FF4FA591B4918FB7F894EC91611187
:1003B00026C030953E233C938FBF08952730A9F087
:1003C0002830C9F0243049F7809180008F7D03C028
:1003D000809180008F7780938000DFCF84B58F7706
:1003E00084BDDBCF84B58F7DFBCF8091B0008F774C
:1003F0008093B000D2CF8091B0008F7DF9CF3E2B9B
:10040000DACF3FB7F89480917D0190917E01A09161
:100410007F01B091800126B5A89B05C02F3F19F040
:100420000196A11DB11D3FBFBA2FA92F982F882774
:10043000BC01CD01620F711D811D911D42E0660F4F
:10044000771F881F991F4A95D1F708958F929F9221
:10045000AF92BF92CF92DF92EF92FF920E94010281
:100460004B015C0185E0C82ED12CE12CF12C0E94BF
:100470000102681979098A099B09683E7340810560
:100480009105A8F321E0C21AD108E108F10888EE2D
:10049000880E83E0981EA11CB11CC114D104E10494
:1004A000F10429F7FF90EF90DF90CF90BF90AF90CD
:1004B0009F908F90089520915501260F3327331F69
:1004C00021323105ECF42091F101FC0190E080E053
:1004D000243069F082E00895A09155012191AC018A
:1004E0004B5C5E4FA40FB52FB11D2C930196861760
:1004F00098F380915501680F6093550180E008954D
:1005000081E008951092F10181E08093F001109252
:10051000CB0161E082E10E94B50161E083E10E94CC
:10052000B501E9EBF0E080818E7F808380818D7F53
:10053000808388E48093B80085E48093BC000895AC
:10054000CF93DF9391E0909334018823B9F0C09169
:10055000B800D091BA008091BC008A7B8093BC0027
:1005600060E082E10E94B50160E083E10E94B50194
:100570000E948202D093BA00C093B800DF91CF915D
:1005800008958F929F92AF92BF92CF92DF92EF9297
:10059000FF920F931F93CF93DF93D0911A02D13222
:1005A00008F0D7C0182FC09119020E9401026B01F8
:1005B0007C018091F10181116BC082E08093F10197
:1005C0001093F0018FEF8093EF011092EE01D09322
:1005D000ED01A9EFB1E0EDECF1E080E0D81391C0BE
:1005E0001092CC018091CC01CC0FC82BC093CC01D0
:1005F0008091CB01813009F088C01092CB010E941C
:1006000001026B017C018091CC018093BB00809141
:10061000F3019091F401A091F501B091F601892BBD
:100620008A2B8B2BA1F00E9401020091F301109103
:10063000F4012091F5013091F6016C197D098E09C4
:100640009F09061717072807390708F442C0809149
:10065000BC0083FDD8CF85EC8093BC000E940102D2
:100660006B017C018091F101823009F450C08091CE
:10067000EF018F3F09F46FC08091EF01803209F4E0
:100680006CC08091EF01803309F469C084E026C01A
:100690008091F3019091F401A091F501B091F601E0
:1006A000892B8A2B8B2B09F484CF0E940102809026
:1006B000F3019090F401A090F501B090F6016C194F
:1006C0007D098E099F0986169706A806B90608F0C7
:1006D00070CF8091F2010E94A00285E01092F80193
:1006E00010921A021092F701DF91CF911F910F9192
:1006F000FF90EF90DF90CF90BF90AF909F908F9042
:1007000008959D9191938F5F69CF85EEA5CF8091DC
:10071000F3019091F401A091F501B091F601892BBC
:100720008A2B8B2B09F49ECF0E9401020091F301CA
:100730001091F4012091F5013091F6016C197D09B9
:100740008E099F09061717072807390708F08ACF6F
:10075000C0CF81E0C3CF80E0C1CF82E0BFCF83E0D4
:10076000BDCFCF93DF93EA01DC0111968D919C916F
:10077000DC01ED91FC910280F381E02D0995C81711
:10078000D90729F481E00E94C10291E0811190E033
:10079000892FDF91CF910895CF93DF93EC018B8167
:1007A0008823A1F0888191E09093F701809319024A
:1007B0001092F80110921A0281E00E94C10291E0A9
:1007C000811190E0892FDF91CF9108951092AA01B5
:1007D0001092A9011092F80110921A020E9482024E
:1007E00086EA90E0909384018093830187EA90E009
:1007F000909382018093810181E08B83CE010E94DE
:10080000CC03982F8111CECFDDCF0895E091AA01BE
:100810008091A901E81730F4F0E0E555FE4F8081A2
:1008200090E008958FEF9FEF08959091AA01809135
:10083000A9012FEF3FEF981748F4E92FF0E0E555B5
:10084000FE4F208130E09F5F9093AA01C901089577
:100850008091A9019091AA01891B990B0895CF92CB
:10086000DF92EF92FF920F931F93CF93DF937C0160
:10087000CB018A012091F701222389F0EB016B0162
:10088000C40ED51ECC15DD0569F06991D701ED9137
:10089000FC910190F081E02DC7010995F3CF642F01
:1008A0000E945B02C801DF91CF911F910F91FF90D1
:1008B000EF90DF90CF900895CF93DF931F92CDB745
:1008C000DEB769832091F7012223F9F020911A0203
:1008D000203258F021E030E0FC013383228390E0A5
:1008E00080E00F90DF91CF9108958091F801E82F7B
:1008F000F0E0E750FE4F998190838F5F8093F8017D
:1009000080931A0281E090E0ECCF61E0CE01019685
:100910000E945B02F7CF90E080E008958093CB02C5
:100920007093CC026093CD028091C4029091C50275
:10093000FC01248135812330310580F0208131E0B4
:100940003093F701209319021092F80110921A02C5
:1009500043E050E06BEC72E00C94B10308952F92E9
:100960003F924F925F926F927F928F929F92AF923F
:10097000BF92CF92DF92EF92FF920F931F93CF938C
:10098000DF938093CB028091C4029091C502DC0179
:1009900014962D913C911597232B81F02C9131E0E9
:1009A0003093F701209319021092F80110921A0265
:1009B00041E050E06BEC72E00E94B103C090C402D1
:1009C000D090C50210E000E082E0A82EB12CD1E06A
:1009D00033243A9495EE892E25EC922EF6018481EB
:1009E00095817501E01AF10A8E159F0508F47C01C6
:1009F000D6012C900E9401022B013C018091F10153
:100A000081116FC0CE2DC13208F0C0E2D093F10148
:100A100021E0C5018E199F090817190708F420E085
:100A20002093F0013092EF011092EE018FEF8C0FC6
:100A30008093ED01D093CC018091CC01220C282A27
:100A40002092CC018091CB01813009F095C01092A9
:100A5000CB010E9401022B013C018091CC018093CB
:100A6000BB008091F3019091F401A091F501B09148
:100A7000F601892B8A2B8B2BA1F00E940102209179
:100A8000F3013091F4014091F5015091F6016419A0
:100A9000750986099709261737074807590708F483
:100AA00041C08091BC0083FDD8CF9092BC000E94D1
:100AB00001022B013C018091F101813009F45FC0FA
:100AC0008091EE018C1710F4C091EE01ADECB1E015
:100AD000EBEAF1E080E08C1751F19D9191938F5FEB
:100AE000FACF8091F3019091F401A091F501B091BA
:100AF000F601892B8A2B8B2B09F480CF0E940102EF
:100B00002091F3013091F4014091F5015091F601EB
:100B10006419750986099709261737074807590781
:100B200008F06CCF8091F2010E94A002C0E0109208
:100B3000AA01C093A901CE151F0409F048C0F8010D
:100B4000EC53FD4F3F01C301801B910B845C92402D
:100B50008E159F05B0F5D60111968D919C91DC0103
:100B6000ED91FC910284F385E02D0995F3018783D3
:100B7000FFEF6F1A7F0AE7CF8092BC0098CF809179
:100B8000F3019091F401A091F501B091F601892B48
:100B90008A2B8B2B09F48FCF0E9401022091F30145
:100BA0003091F4014091F5015091F60164197509F5
:100BB00086099709261737074807590708F07BCF9A
:100BC000B1CF0E0D1F1D0230110508F407CF809123
:100BD000CB029091CC02982789279827DF91CF915B
:100BE0001F910F91FF90EF90DF90CF90BF90AF904B
:100BF0009F908F907F906F905F904F903F902F903D
:100C000008956091C7027091C8028091C9029091C5
:100C1000CA02682B792B716C81E00E948E0460E01F
:100C200070E883E00E948E0470E060E082E00E9441
:100C30008E0481E00E94AF0497FFFBCF80E00E940A
:100C4000AF042091C602022E02C0969587950A94A1
:100C5000E2F7222329F0811528E0920708F0906F2F
:100C6000089585ED8093BC008091F3019091F4018B
:100C7000A091F501B091F6010796A11DB11D23E0E9
:100C8000B695A795979587952A95D1F72091BC00A1
:100C900024FD03C01092F10108954091F301509199
:100CA000F4016091F5017091F601452B462B472B1D
:100CB00069F30097A105B10541F02AE22A95F1F701
:100CC00000C00197A109B109E1CF8091F2010C9414
:100CD000A0021F920F920FB60F9211242F933F93F1
:100CE0004F935F936F937F938F939F93AF93BF9334
:100CF000EF93FF938BE192E00E942601FF91EF9129
:100D0000BF91AF919F918F917F916F915F914F9123
:100D10003F912F910F900FBE0F901F9018951F922B
:100D20000F920FB60F9211242F938F939F93EF93EF
:100D3000FF93E0912B02F0912C028081E09131022F
:100D4000F091320282FD1BC09081809134028F5F4E
:100D50008F7320913502821741F0E0913402F0E068
:100D6000E55EFD4F958F80933402FF91EF919F9147
:100D70008F912F910F900FBE0F901F90189580812B
:100D8000F4CF1F920F920FB60F9211242F933F931F
:100D90008F939F93AF93BF938091790190917A0144
:100DA000A0917B01B0917C013091780123E0230F69
:100DB0002D3758F50196A11DB11D20937801809320
:100DC000790190937A01A0937B01B0937C0180918B
:100DD0007D0190917E01A0917F01B09180010196EB
:100DE000A11DB11D80937D0190937E01A0937F0191
:100DF000B0938001BF91AF919F918F913F912F91BF
:100E00000F900FBE0F901F90189526E8230F0296A3
:100E1000A11DB11DD2CF1F920F920FB60F921124B8
:100E20002F933F934F935F936F937F938F939F93F2
:100E3000AF93BF93EF93FF938091B900887F803683
:100E400009F44AC0F0F5883209F4A7C018F58031DA
:100E500009F49BC0B8F4882309F4F9C0883009F478
:100E600094C0FF91EF91BF91AF919F918F917F912E
:100E70006F915F914F913F912F910F900FBE0F9007
:100E80001F901895883109F488C0803251F78093FB
:100E9000EF0114C0803409F49DC040F48033B9F3ED
:100EA0008833F9F68093EF0185ECB0C0803509F402
:100EB00085C0883509F496C0883499F60E943106B9
:100EC000D0CF883909F48CC038F5883729F050F430
:100ED000883611F0803729F683E08093F101109273
:100EE000770157C0883809F47BC0803919F0803801
:100EF00009F0B7CF80917701803208F071C0E0919E
:100F0000770181E08E0F809377018091BB00F0E044
:100F1000E95AFE4F80833DC0803B39F0E0F4803ACF
:100F200009F479C0883A09F09CCF84E08093F101FC
:100F30001092560110925501E0918301F0918401C5
:100F400009958091550181110FC081E08093550171
:100F50001092350109C0803C09F4A6CF883C09F401
:100F6000A3CF883B09F07DCFE091560181E08E0F41
:100F700080935601F0E0EB5CFE4F80818093BB00D4
:100F8000909156018091550129C08091CC018093A8
:100F9000BB0085EC8093BC0064CF9091EE01809102
:100FA000ED01981758F5E091EE0181E08E0F8093E6
:100FB000EE01F0E0E353FE4F8081E9CFE091EE01D6
:100FC00081E08E0F8093EE018091BB00F0E0E3534F
:100FD000FE4F80839091EE018091ED019817C8F249
:100FE00085E8D8CFE091EE0181E08E0F8093EE018D
:100FF0008091BB00F0E0E353FE4F80838091F001CD
:1010000081115CCF81E08093CB0184EA8093BC00A6
:101010001092F10126CF85EC8093BC001092F10173
:1010200080917701803230F4E0917701F0E0E95A65
:10103000FE4F10826091770170E0E0918101F091A4
:10104000820187E591E00995109277010ACF10920D
:10105000EF0134CFEBE1F2E01382128288EE93E0ED
:10106000A0E0B0E084839583A683B7832AE031E0D3
:101070003183208325EC30E03587248724EC30E071
:101080003787268720EC30E0318B208B21EC30E055
:10109000338B228B22EC30E0358B248B26EC30E036
:1010A000378B268B118E128E138E148EE8EBF2E0A6
:1010B0001382128284839583A683B7838CE191E0A7
:1010C00091838083E4ECF2E0118210821282148218
:1010D000138280E890E0968385830895789484B5A0
:1010E000826084BD84B5816084BD85B5826085BD24
:1010F00085B5816085BD80916E00816080936E00B2
:1011000010928100809181008260809381008091A3
:101110008100816080938100809180008160809354
:1011200080008091B10084608093B1008091B00014
:1011300081608093B00080917A00846080937A000F
:1011400080917A00826080937A0080917A00816039
:1011500080937A0080917A00806880937A00109260
:10116000C10083E00E94870084E00E948700E09134
:101170002B02F0912C0282E08083E0912702F09113
:1011800028021082E0912902F0912A028FEC8083DC
:1011900010923302E0912F02F091300286E08083BA
:1011A000E0912D02F0912E02808180618083E09198
:1011B0002D02F0912E02808188608083E0912D02C3
:1011C000F0912E02808180688083E0912D02F09161
:1011D0002E0280818F7D80838091C4029091C50210
:1011E000009711F00E942E0A86E090E00E9492097A
:1011F000EC0188E4888388EB92E09A8389831B82E0
:1012000080E290E09D838C83D093C502C093C4029A
:101210001092AA011092A9011092F80110921A02DC
:101220000E94820286EA90E0909384018093830179
:1012300087EA90E0909382018093810181E08B8323
:10124000CE010E94CC0380E094E09093C80280938A
:10125000C7020AE211E0C5E8D1E080E0C82E80E0D4
:10126000D82E61E083E00E94B5010E9426020E9410
:1012700001069093A8018093A70160E083E00E949B
:10128000B50161E084E00E94B5010E9426020E943F
:101290000106F82EE92E8093A5019093A60160E047
:1012A00084E00E94B501EF92FF928091A8018F9394
:1012B0008091A7018F931F930F93DF93CF930E9489
:1012C000B70AFE0101900020E9F7AF0146585140EE
:1012D00065E871E08BE192E00E94A80042E050E0F6
:1012E00060E371E08BE192E00E94A8000E94260278
:1012F0008DB79EB708960FB6F8949EBF0FBE8DBFF0
:10130000C114D10409F4ADCF0E941201882309F45D
:10131000A8CF0E940000A5CFEE0FFF1F0590F4910B
:10132000E02D09940F931F93CF93DF9382309105A3
:1013300010F482E090E0E091D002F091D10230E030
:1013400020E0B0E0A0E0309799F42115310509F4D0
:101350004AC0281B390B24303105D8F58A819B817E
:101360006115710589F1FB0193838283FE0111C030
:10137000408151810281138148175907E0F04817D5
:10138000590799F4109761F012960C9312971396DF
:101390001C933296CF01DF91CF911F910F91089549
:1013A0000093D0021093D102F4CF2115310551F0F2
:1013B0004217530738F0A901DB019A01BD01DF0193
:1013C000F801C1CFEF01F9CF9093D1028093D00201
:1013D000CDCFFE01E20FF31F81939193225031098B
:1013E00039832883D7CF2091CE023091CF02232B8F
:1013F00041F420910201309103013093CF022093F8
:10140000CE0220910001309101012115310541F4F6
:101410002DB73EB74091040150910501241B350BB7
:10142000E091CE02F091CF02E217F307A0F42E1B59
:101430003F0B2817390778F0AC014E5F5F4F241738
:10144000350748F04E0F5F1F5093CF024093CE02F6
:10145000819391939FCFF0E0E0E09CCFCF93DF9317
:101460000097E9F0FC01329713821282A091D0021A
:10147000B091D102ED0130E020E01097A1F420817D
:101480003181820F931F2091CE023091CF02281715
:10149000390709F061C0F093CF02E093CE02DF91EB
:1014A000CF910895EA01CE17DF07E8F54A815B8105
:1014B0009E0141155105B1F7E901FB83EA8349918A
:1014C0005991C40FD51FEC17FD0761F480819181FC
:1014D0000296840F951FE901998388838281938105
:1014E0009B838A83F0E0E0E012968D919C911397A4
:1014F0000097B9F52D913C911197CD010296820F7D
:10150000931F2091CE023091CF022817390739F668
:10151000309751F51092D1021092D002B093CF02C1
:10152000A093CE02BCCFD383C28340815181840F6C
:10153000951FC817D90761F44E5F5F4F8881998165
:10154000480F591F518340838A819B8193838283F3
:101550002115310509F0B0CFF093D102E093D0020C
:101560009ECFFD01DC01C0CF13821282D7CFAEE047
:10157000B0E0EDEBFAE00C94660D0D891E8986E073
:101580008C831A8309838FEF9FE79E838D83AE013F
:10159000475E5F4F6F89788DCE0101960E94DA0A0F
:1015A0002F813885020F131FF80110822E96E4E078
:1015B0000C94820DABE0B0E0E0EEFAE00C94580D34
:1015C0007C013B018A01FC0117821682838181FF25
:1015D000C8C1CE0101965C01F7019381F30193FD2F
:1015E000859193FF81913F01882309F453C185328E
:1015F00039F493FD859193FF81913F01853229F460
:10160000B70190E00E94CA0CE7CF912C212C312C1D
:10161000FFE1F31538F08B3211F190F4803209F1CB
:10162000833229F137FC3CC020ED280F2A3050F5D9
:1016300036FE20C08AE0989E200D1124922E06C00E
:101640008D3291F0803371F7689430F8F30193FD97
:10165000859193FF81913F018111DACF21C0689478
:1016600031F8689432F8F2CF689433F8EFCF689489
:1016700034F8ECCFEAE02E9E200D1124222E68943F
:1016800035F8E4CF8E3229F436FC04C1689436F87C
:10169000DDCF8C3619F4689437F8D8CF8836B1F29C
:1016A000982F9F7D95549330E0F08336A1F18337D6
:1016B000C1F1833509F063C02801F2E04F0E511CDF
:1016C000F801C080D180692D70E036FC02C06FEF58
:1016D0007FEFC6010E94B40C4C01689437F8820178
:1016E0000AC00C5F1F4FFFE3F98388248394912C79
:1016F0006501E89437F833FE2DC0522C8114910413
:1017000071F5552009F468CFB70180E290E00E949E
:10171000CA0C5A94F6CFF801808189830E5F1F4F5F
:10172000E4CF2801F2E04F0E511CF801C080D180B7
:10173000692D70E036FC02C06FEF7FEFC6010E949A
:10174000BF0C4C018201D5CFB70180E290E00E942E
:10175000CA0C2A942814190409F0B0F7CECFF60168
:1017600037FC859137FE81916F01B70190E00E94AF
:10177000CA0C51105A94F1E08F1A9108BFCF8436E9
:1017800019F0893609F077C0F80137FE6BC0608127
:101790007181828193810C5F1F4FF32DFF763F2E65
:1017A00097FF09C090958095709561957F4F8F4FF9
:1017B0009F4F689437F82AE030E0A5010E94FA0CA8
:1017C000C82ECA188C2C432C36FE0CC0E89440F866
:1017D000C91440F434FE05C032FC03C0F32DFE7E74
:1017E0004F2E892C44FE95C0FE01EC0DF11D808129
:1017F000803309F087C0242D297E422E842D8870E5
:10180000582E43FC95C040FE8FC09C2C821418F4C7
:101810002C0C922C981844FE91C0B70180E390E004
:101820000E94CA0C42FE09C088E790E041FE02C057
:1018300088E590E0B7010E94CA0CC91408F48AC078
:10184000CA94D12C9FEFC91AD90ACA0CDB1CF60125
:1018500082916F01B70190E00E94CA0CAC14BD04E4
:10186000B1F74FCF60817181072E000C880B990B67
:101870000E5F1F4F92CFD32CE894D4F82AE030E0CB
:10188000853739F1232D297FD22E8F3601F148F487
:101890008835A9F0F701868197812B96E2E10C94B7
:1018A000740D803749F08837A9F7D4FE02C06894D8
:1018B000D2F820E130E00DC06894D4F8F6CF34FEC1
:1018C00003C0822F8660D82E20E132E002C028E0DB
:1018D00030E0F801D7FE0FC0608171818281938171
:1018E0000C5F1F4FA5010E94FA0CC82ECA183D2C90
:1018F000E89437F867CF6081718190E080E00E5FF7
:101900001F4FF0CF42FC02C0839478CF839483941E
:1019100075CF842D867809F471CFF6CFB70180E2B8
:1019200090E00E94CA0C83948214C0F3512C73CFB0
:10193000522C5818821408F46ECFF8CF842D867874
:1019400009F47BCF8BE241FE80E247FC8DE2B701D8
:1019500090E071CFB70180E390E00E94CA0C9A94A6
:101960006CCF8FEF9FEF99CFFC01059061507040D5
:101970000110D8F7809590958E0F9F1F0895FC0158
:101980006150704001900110D8F7809590958E0FAE
:101990009F1F08950F931F93CF93DF93182F092F45
:1019A000EB018B8181FD09C01FEF0FEF812F902F7D
:1019B000DF91CF911F910F91089582FF14C02E8166
:1019C0003F818C819D81281739073CF4E881F9819A
:1019D000CF0101969983888310838E819F81019620
:1019E0009F838E83E3CFE885F985812F0995892B25
:1019F000A1F3DACFFA01AA27283051F1203181F181
:101A0000E8946F936E7F6E5F7F4F8F4F9F4FAF4F06
:101A1000B1E03ED0B4E03CD0670F781F891F9A1F19
:101A2000A11D680F791F8A1F911DA11D6A0F711DCD
:101A3000811D911DA11D20D009F468943F912AE0D9
:101A4000269F11243019305D3193DEF6CF010895C1
:101A5000462F4770405D4193B3E00FD0C9F7F6CFF2
:101A6000462F4F70405D4A3318F0495D31FD4052BA
:101A7000419302D0A9F7EACFB4E0A6959795879550
:101A800077956795BA95C9F700976105710508952F
:101A90009B01AC010A2E06945795479537952795DB
:101AA000BA95C9F7620F731F841F951FA01D089573
:101AB0002F923F924F925F926F927F928F929F925E
:101AC000AF92BF92CF92DF92EF92FF920F931F934C
:101AD000CF93DF93CDB7DEB7CA1BDB0B0FB6F894FD
:101AE000DEBF0FBECDBF09942A88398848885F843D
:101AF0006E847D848C849B84AA84B984C884DF80AE
:101B0000EE80FD800C811B81AA81B981CE0FD11D91
:101B10000FB6F894DEBF0FBECDBFED010895F89467
:101B2000FFCF0000D2028000000000004801A800A2
:101B3000D50095010601E400F800000000005C04F7
:101B40002F048B04050428041504060425642C25A1
:061B500064000D0A000014
:107E0000112484B714BE81FFF0D085E080938100F7
:107E100082E08093C00088E18093C10086E0809377
:107E2000C20080E18093C4008EE0C9D0259A86E02C
:107E300020E33CEF91E0309385002093840096BBD3
:107E4000B09BFECF1D9AA8958150A9F7CC24DD24C4
:107E500088248394B5E0AB2EA1E19A2EF3E0BF2EE7
:107E6000A2D0813461F49FD0082FAFD0023811F036
:107E7000013811F484E001C083E08DD089C08234E0
:107E800011F484E103C0853419F485E0A6D080C0E4
:107E9000853579F488D0E82EFF2485D0082F10E0AE
:107EA000102F00270E291F29000F111F8ED06801E7
:107EB0006FC0863521F484E090D080E0DECF843638
:107EC00009F040C070D06FD0082F6DD080E0C81688
:107ED00080E7D80618F4F601B7BEE895C0E0D1E017
:107EE00062D089930C17E1F7F0E0CF16F0E7DF06D8
:107EF00018F0F601B7BEE89568D007B600FCFDCFD4
:107F0000A601A0E0B1E02C9130E011968C91119780
:107F100090E0982F8827822B932B1296FA010C0160
:107F200087BEE89511244E5F5F4FF1E0A038BF0790
:107F300051F7F601A7BEE89507B600FCFDCF97BE46
:107F4000E89526C08437B1F42ED02DD0F82E2BD052
:107F50003CD0F601EF2C8F010F5F1F4F84911BD097
:107F6000EA94F801C1F70894C11CD11CFA94CF0C13
:107F7000D11C0EC0853739F428D08EE10CD085E9AC
:107F80000AD08FE07ACF813511F488E018D01DD067
:107F900080E101D065CF982F8091C00085FFFCCF94
:107FA0009093C60008958091C00087FFFCCF809118
:107FB000C00084FD01C0A8958091C6000895E0E648
:107FC000F0E098E1908380830895EDDF803219F02E
:107FD00088E0F5DFFFCF84E1DECF1F93182FE3DFCA
:107FE0001150E9F7F2DF1F91089580E0E8DFEE27F6
:047FF000FF270994CA
:027FFE00040479
:00000001FF
